{
  "_format": "hh-sol-artifact-1",
  "contractName": "NFT",
  "sourceName": "src/backend/contracts/NFT.sol",
  "abi": [
    {
      "inputs": [],
      "stateMutability": "nonpayable",
      "type": "constructor"
    },
    {
      "anonymous": false,
      "inputs": [
        {
          "indexed": true,
          "internalType": "address",
          "name": "owner",
          "type": "address"
        },
        {
          "indexed": true,
          "internalType": "address",
          "name": "approved",
          "type": "address"
        },
        {
          "indexed": true,
          "internalType": "uint256",
          "name": "tokenId",
          "type": "uint256"
        }
      ],
      "name": "Approval",
      "type": "event"
    },
    {
      "anonymous": false,
      "inputs": [
        {
          "indexed": true,
          "internalType": "address",
          "name": "owner",
          "type": "address"
        },
        {
          "indexed": true,
          "internalType": "address",
          "name": "operator",
          "type": "address"
        },
        {
          "indexed": false,
          "internalType": "bool",
          "name": "approved",
          "type": "bool"
        }
      ],
      "name": "ApprovalForAll",
      "type": "event"
    },
    {
      "anonymous": false,
      "inputs": [
        {
          "indexed": true,
          "internalType": "address",
          "name": "previousOwner",
          "type": "address"
        },
        {
          "indexed": true,
          "internalType": "address",
          "name": "newOwner",
          "type": "address"
        }
      ],
      "name": "OwnershipTransferred",
      "type": "event"
    },
    {
      "anonymous": false,
      "inputs": [
        {
          "indexed": true,
          "internalType": "address",
          "name": "from",
          "type": "address"
        },
        {
          "indexed": true,
          "internalType": "address",
          "name": "to",
          "type": "address"
        },
        {
          "indexed": true,
          "internalType": "uint256",
          "name": "tokenId",
          "type": "uint256"
        }
      ],
      "name": "Transfer",
      "type": "event"
    },
    {
      "inputs": [
        {
          "internalType": "address",
          "name": "to",
          "type": "address"
        },
        {
          "internalType": "uint256",
          "name": "tokenId",
          "type": "uint256"
        }
      ],
      "name": "approve",
      "outputs": [],
      "stateMutability": "nonpayable",
      "type": "function"
    },
    {
      "inputs": [
        {
          "internalType": "address",
          "name": "owner",
          "type": "address"
        }
      ],
      "name": "balanceOf",
      "outputs": [
        {
          "internalType": "uint256",
          "name": "",
          "type": "uint256"
        }
      ],
      "stateMutability": "view",
      "type": "function"
    },
    {
      "inputs": [
        {
          "internalType": "uint256",
          "name": "tokenId",
          "type": "uint256"
        }
      ],
      "name": "getApproved",
      "outputs": [
        {
          "internalType": "address",
          "name": "",
          "type": "address"
        }
      ],
      "stateMutability": "view",
      "type": "function"
    },
    {
      "inputs": [
        {
          "internalType": "address",
          "name": "owner",
          "type": "address"
        },
        {
          "internalType": "address",
          "name": "operator",
          "type": "address"
        }
      ],
      "name": "isApprovedForAll",
      "outputs": [
        {
          "internalType": "bool",
          "name": "",
          "type": "bool"
        }
      ],
      "stateMutability": "view",
      "type": "function"
    },
    {
      "inputs": [
        {
          "internalType": "string",
          "name": "_tokenURI",
          "type": "string"
        }
      ],
      "name": "mint",
      "outputs": [
        {
          "internalType": "uint256",
          "name": "",
          "type": "uint256"
        }
      ],
      "stateMutability": "nonpayable",
      "type": "function"
    },
    {
      "inputs": [],
      "name": "name",
      "outputs": [
        {
          "internalType": "string",
          "name": "",
          "type": "string"
        }
      ],
      "stateMutability": "view",
      "type": "function"
    },
    {
      "inputs": [],
      "name": "owner",
      "outputs": [
        {
          "internalType": "address",
          "name": "",
          "type": "address"
        }
      ],
      "stateMutability": "view",
      "type": "function"
    },
    {
      "inputs": [
        {
          "internalType": "uint256",
          "name": "tokenId",
          "type": "uint256"
        }
      ],
      "name": "ownerOf",
      "outputs": [
        {
          "internalType": "address",
          "name": "",
          "type": "address"
        }
      ],
      "stateMutability": "view",
      "type": "function"
    },
    {
      "inputs": [],
      "name": "renounceOwnership",
      "outputs": [],
      "stateMutability": "nonpayable",
      "type": "function"
    },
    {
      "inputs": [
        {
          "internalType": "address",
          "name": "from",
          "type": "address"
        },
        {
          "internalType": "address",
          "name": "to",
          "type": "address"
        },
        {
          "internalType": "uint256",
          "name": "tokenId",
          "type": "uint256"
        }
      ],
      "name": "safeTransferFrom",
      "outputs": [],
      "stateMutability": "nonpayable",
      "type": "function"
    },
    {
      "inputs": [
        {
          "internalType": "address",
          "name": "from",
          "type": "address"
        },
        {
          "internalType": "address",
          "name": "to",
          "type": "address"
        },
        {
          "internalType": "uint256",
          "name": "tokenId",
          "type": "uint256"
        },
        {
          "internalType": "bytes",
          "name": "_data",
          "type": "bytes"
        }
      ],
      "name": "safeTransferFrom",
      "outputs": [],
      "stateMutability": "nonpayable",
      "type": "function"
    },
    {
      "inputs": [
        {
          "internalType": "address",
          "name": "operator",
          "type": "address"
        },
        {
          "internalType": "bool",
          "name": "approved",
          "type": "bool"
        }
      ],
      "name": "setApprovalForAll",
      "outputs": [],
      "stateMutability": "nonpayable",
      "type": "function"
    },
    {
      "inputs": [
        {
          "internalType": "bytes4",
          "name": "interfaceId",
          "type": "bytes4"
        }
      ],
      "name": "supportsInterface",
      "outputs": [
        {
          "internalType": "bool",
          "name": "",
          "type": "bool"
        }
      ],
      "stateMutability": "view",
      "type": "function"
    },
    {
      "inputs": [],
      "name": "symbol",
      "outputs": [
        {
          "internalType": "string",
          "name": "",
          "type": "string"
        }
      ],
      "stateMutability": "view",
      "type": "function"
    },
    {
      "inputs": [],
      "name": "tokenCount",
      "outputs": [
        {
          "internalType": "uint256",
          "name": "",
          "type": "uint256"
        }
      ],
      "stateMutability": "view",
      "type": "function"
    },
    {
      "inputs": [
        {
          "internalType": "uint256",
          "name": "tokenId",
          "type": "uint256"
        }
      ],
      "name": "tokenURI",
      "outputs": [
        {
          "internalType": "string",
          "name": "",
          "type": "string"
        }
      ],
      "stateMutability": "view",
      "type": "function"
    },
    {
      "inputs": [
        {
          "internalType": "address",
          "name": "from",
          "type": "address"
        },
        {
          "internalType": "address",
          "name": "to",
          "type": "address"
        },
        {
          "internalType": "uint256",
          "name": "tokenId",
          "type": "uint256"
        }
      ],
      "name": "transferFrom",
      "outputs": [],
      "stateMutability": "nonpayable",
      "type": "function"
    },
    {
      "inputs": [
        {
          "internalType": "address",
          "name": "newOwner",
          "type": "address"
        }
      ],
      "name": "transferOwnership",
      "outputs": [],
      "stateMutability": "nonpayable",
      "type": "function"
    }
  ],
  "bytecode": "0x60806040523480156200001157600080fd5b506040518060400160405280601081526020017f746869732069732064656d6f204e4654000000000000000000000000000000008152506040518060400160405280600481526020017f4441505000000000000000000000000000000000000000000000000000000000815250816000908051906020019062000096929190620001a6565b508060019080519060200190620000af929190620001a6565b505050620000d2620000c6620000d860201b60201c565b620000e060201b60201c565b620002bb565b600033905090565b6000600760009054906101000a900473ffffffffffffffffffffffffffffffffffffffff16905081600760006101000a81548173ffffffffffffffffffffffffffffffffffffffff021916908373ffffffffffffffffffffffffffffffffffffffff1602179055508173ffffffffffffffffffffffffffffffffffffffff168173ffffffffffffffffffffffffffffffffffffffff167f8be0079c531659141344cd1fd0a4f28419497f9722a3daafe3b4186f6b6457e060405160405180910390a35050565b828054620001b49062000256565b90600052602060002090601f016020900481019282620001d8576000855562000224565b82601f10620001f357805160ff191683800117855562000224565b8280016001018555821562000224579182015b828111156200022357825182559160200191906001019062000206565b5b50905062000233919062000237565b5090565b5b808211156200025257600081600090555060010162000238565b5090565b600060028204905060018216806200026f57607f821691505b602082108114156200028657620002856200028c565b5b50919050565b7f4e487b7100000000000000000000000000000000000000000000000000000000600052602260045260246000fd5b612fe280620002cb6000396000f3fe608060405234801561001057600080fd5b50600436106101165760003560e01c80638da5cb5b116100a2578063b88d4fde11610071578063b88d4fde146102cd578063c87b56dd146102e9578063d85d3d2714610319578063e985e9c514610349578063f2fde38b1461037957610116565b80638da5cb5b1461025757806395d89b41146102755780639f181b5e14610293578063a22cb465146102b157610116565b806323b872dd116100e957806323b872dd146101b557806342842e0e146101d15780636352211e146101ed57806370a082311461021d578063715018a61461024d57610116565b806301ffc9a71461011b57806306fdde031461014b578063081812fc14610169578063095ea7b314610199575b600080fd5b61013560048036038101906101309190611f50565b610395565b60405161014291906123dd565b60405180910390f35b610153610477565b60405161016091906123f8565b60405180910390f35b610183600480360381019061017e9190611fe3565b610509565b6040516101909190612376565b60405180910390f35b6101b360048036038101906101ae9190611f14565b61058e565b005b6101cf60048036038101906101ca9190611e0e565b6106a6565b005b6101eb60048036038101906101e69190611e0e565b610706565b005b61020760048036038101906102029190611fe3565b610726565b6040516102149190612376565b60405180910390f35b61023760048036038101906102329190611da9565b6107d8565b604051610244919061265a565b60405180910390f35b610255610890565b005b61025f610918565b60405161026c9190612376565b60405180910390f35b61027d610942565b60405161028a91906123f8565b60405180910390f35b61029b6109d4565b6040516102a8919061265a565b60405180910390f35b6102cb60048036038101906102c69190611ed8565b6109da565b005b6102e760048036038101906102e29190611e5d565b6109f0565b005b61030360048036038101906102fe9190611fe3565b610a52565b60405161031091906123f8565b60405180910390f35b610333600480360381019061032e9190611fa2565b610ba4565b604051610340919061265a565b60405180910390f35b610363600480360381019061035e9190611dd2565b610be0565b60405161037091906123dd565b60405180910390f35b610393600480360381019061038e9190611da9565b610c74565b005b60007f80ac58cd000000000000000000000000000000000000000000000000000000007bffffffffffffffffffffffffffffffffffffffffffffffffffffffff1916827bffffffffffffffffffffffffffffffffffffffffffffffffffffffff1916148061046057507f5b5e139f000000000000000000000000000000000000000000000000000000007bffffffffffffffffffffffffffffffffffffffffffffffffffffffff1916827bffffffffffffffffffffffffffffffffffffffffffffffffffffffff1916145b80610470575061046f82610d6c565b5b9050919050565b606060008054610486906128b0565b80601f01602080910402602001604051908101604052809291908181526020018280546104b2906128b0565b80156104ff5780601f106104d4576101008083540402835291602001916104ff565b820191906000526020600020905b8154815290600101906020018083116104e257829003601f168201915b5050505050905090565b600061051482610dd6565b610553576040517f08c379a000000000000000000000000000000000000000000000000000000000815260040161054a906125ba565b60405180910390fd5b6004600083815260200190815260200160002060009054906101000a900473ffffffffffffffffffffffffffffffffffffffff169050919050565b600061059982610726565b90508073ffffffffffffffffffffffffffffffffffffffff168373ffffffffffffffffffffffffffffffffffffffff16141561060a576040517f08c379a00000000000000000000000000000000000000000000000000000000081526004016106019061261a565b60405180910390fd5b8073ffffffffffffffffffffffffffffffffffffffff16610629610e42565b73ffffffffffffffffffffffffffffffffffffffff161480610658575061065781610652610e42565b610be0565b5b610697576040517f08c379a000000000000000000000000000000000000000000000000000000000815260040161068e906124fa565b60405180910390fd5b6106a18383610e4a565b505050565b6106b76106b1610e42565b82610f03565b6106f6576040517f08c379a00000000000000000000000000000000000000000000000000000000081526004016106ed9061263a565b60405180910390fd5b610701838383610fe1565b505050565b610721838383604051806020016040528060008152506109f0565b505050565b6000806002600084815260200190815260200160002060009054906101000a900473ffffffffffffffffffffffffffffffffffffffff169050600073ffffffffffffffffffffffffffffffffffffffff168173ffffffffffffffffffffffffffffffffffffffff1614156107cf576040517f08c379a00000000000000000000000000000000000000000000000000000000081526004016107c69061253a565b60405180910390fd5b80915050919050565b60008073ffffffffffffffffffffffffffffffffffffffff168273ffffffffffffffffffffffffffffffffffffffff161415610849576040517f08c379a00000000000000000000000000000000000000000000000000000000081526004016108409061251a565b60405180910390fd5b600360008373ffffffffffffffffffffffffffffffffffffffff1673ffffffffffffffffffffffffffffffffffffffff168152602001908152602001600020549050919050565b610898610e42565b73ffffffffffffffffffffffffffffffffffffffff166108b6610918565b73ffffffffffffffffffffffffffffffffffffffff161461090c576040517f08c379a0000000000000000000000000000000000000000000000000000000008152600401610903906125da565b60405180910390fd5b6109166000611248565b565b6000600760009054906101000a900473ffffffffffffffffffffffffffffffffffffffff16905090565b606060018054610951906128b0565b80601f016020809104026020016040519081016040528092919081815260200182805461097d906128b0565b80156109ca5780601f1061099f576101008083540402835291602001916109ca565b820191906000526020600020905b8154815290600101906020018083116109ad57829003601f168201915b5050505050905090565b60085481565b6109ec6109e5610e42565b838361130e565b5050565b610a016109fb610e42565b83610f03565b610a40576040517f08c379a0000000000000000000000000000000000000000000000000000000008152600401610a379061263a565b60405180910390fd5b610a4c8484848461147b565b50505050565b6060610a5d82610dd6565b610a9c576040517f08c379a0000000000000000000000000000000000000000000000000000000008152600401610a939061259a565b60405180910390fd5b6000600660008481526020019081526020016000208054610abc906128b0565b80601f0160208091040260200160405190810160405280929190818152602001828054610ae8906128b0565b8015610b355780601f10610b0a57610100808354040283529160200191610b35565b820191906000526020600020905b815481529060010190602001808311610b1857829003601f168201915b505050505090506000610b466114d7565b9050600081511415610b5c578192505050610b9f565b600082511115610b91578082604051602001610b79929190612352565b60405160208183030381529060405292505050610b9f565b610b9a846114ee565b925050505b919050565b600060086000815480929190610bb990612913565b9190505550610bca33600854611595565b610bd6600854836115b3565b6008549050919050565b6000600560008473ffffffffffffffffffffffffffffffffffffffff1673ffffffffffffffffffffffffffffffffffffffff16815260200190815260200160002060008373ffffffffffffffffffffffffffffffffffffffff1673ffffffffffffffffffffffffffffffffffffffff16815260200190815260200160002060009054906101000a900460ff16905092915050565b610c7c610e42565b73ffffffffffffffffffffffffffffffffffffffff16610c9a610918565b73ffffffffffffffffffffffffffffffffffffffff1614610cf0576040517f08c379a0000000000000000000000000000000000000000000000000000000008152600401610ce7906125da565b60405180910390fd5b600073ffffffffffffffffffffffffffffffffffffffff168173ffffffffffffffffffffffffffffffffffffffff161415610d60576040517f08c379a0000000000000000000000000000000000000000000000000000000008152600401610d579061243a565b60405180910390fd5b610d6981611248565b50565b60007f01ffc9a7000000000000000000000000000000000000000000000000000000007bffffffffffffffffffffffffffffffffffffffffffffffffffffffff1916827bffffffffffffffffffffffffffffffffffffffffffffffffffffffff1916149050919050565b60008073ffffffffffffffffffffffffffffffffffffffff166002600084815260200190815260200160002060009054906101000a900473ffffffffffffffffffffffffffffffffffffffff1673ffffffffffffffffffffffffffffffffffffffff1614159050919050565b600033905090565b816004600083815260200190815260200160002060006101000a81548173ffffffffffffffffffffffffffffffffffffffff021916908373ffffffffffffffffffffffffffffffffffffffff160217905550808273ffffffffffffffffffffffffffffffffffffffff16610ebd83610726565b73ffffffffffffffffffffffffffffffffffffffff167f8c5be1e5ebec7d5bd14f71427d1e84f3dd0314c0f7b2291e5b200ac8c7c3b92560405160405180910390a45050565b6000610f0e82610dd6565b610f4d576040517f08c379a0000000000000000000000000000000000000000000000000000000008152600401610f44906124da565b60405180910390fd5b6000610f5883610726565b90508073ffffffffffffffffffffffffffffffffffffffff168473ffffffffffffffffffffffffffffffffffffffff161480610fc757508373ffffffffffffffffffffffffffffffffffffffff16610faf84610509565b73ffffffffffffffffffffffffffffffffffffffff16145b80610fd85750610fd78185610be0565b5b91505092915050565b8273ffffffffffffffffffffffffffffffffffffffff1661100182610726565b73ffffffffffffffffffffffffffffffffffffffff1614611057576040517f08c379a000000000000000000000000000000000000000000000000000000000815260040161104e9061245a565b60405180910390fd5b600073ffffffffffffffffffffffffffffffffffffffff168273ffffffffffffffffffffffffffffffffffffffff1614156110c7576040517f08c379a00000000000000000000000000000000000000000000000000000000081526004016110be9061249a565b60405180910390fd5b6110d2838383611627565b6110dd600082610e4a565b6001600360008573ffffffffffffffffffffffffffffffffffffffff1673ffffffffffffffffffffffffffffffffffffffff168152602001908152602001600020600082825461112d91906127c6565b925050819055506001600360008473ffffffffffffffffffffffffffffffffffffffff1673ffffffffffffffffffffffffffffffffffffffff1681526020019081526020016000206000828254611184919061273f565b92505081905550816002600083815260200190815260200160002060006101000a81548173ffffffffffffffffffffffffffffffffffffffff021916908373ffffffffffffffffffffffffffffffffffffffff160217905550808273ffffffffffffffffffffffffffffffffffffffff168473ffffffffffffffffffffffffffffffffffffffff167fddf252ad1be2c89b69c2b068fc378daa952ba7f163c4a11628f55a4df523b3ef60405160405180910390a461124383838361162c565b505050565b6000600760009054906101000a900473ffffffffffffffffffffffffffffffffffffffff16905081600760006101000a81548173ffffffffffffffffffffffffffffffffffffffff021916908373ffffffffffffffffffffffffffffffffffffffff1602179055508173ffffffffffffffffffffffffffffffffffffffff168173ffffffffffffffffffffffffffffffffffffffff167f8be0079c531659141344cd1fd0a4f28419497f9722a3daafe3b4186f6b6457e060405160405180910390a35050565b8173ffffffffffffffffffffffffffffffffffffffff168373ffffffffffffffffffffffffffffffffffffffff16141561137d576040517f08c379a0000000000000000000000000000000000000000000000000000000008152600401611374906124ba565b60405180910390fd5b80600560008573ffffffffffffffffffffffffffffffffffffffff1673ffffffffffffffffffffffffffffffffffffffff16815260200190815260200160002060008473ffffffffffffffffffffffffffffffffffffffff1673ffffffffffffffffffffffffffffffffffffffff16815260200190815260200160002060006101000a81548160ff0219169083151502179055508173ffffffffffffffffffffffffffffffffffffffff168373ffffffffffffffffffffffffffffffffffffffff167f17307eab39ab6107e8899845ad3d59bd9653f200f220920489ca2b5937696c318360405161146e91906123dd565b60405180910390a3505050565b611486848484610fe1565b61149284848484611631565b6114d1576040517f08c379a00000000000000000000000000000000000000000000000000000000081526004016114c89061241a565b60405180910390fd5b50505050565b606060405180602001604052806000815250905090565b60606114f982610dd6565b611538576040517f08c379a000000000000000000000000000000000000000000000000000000000815260040161152f906125fa565b60405180910390fd5b60006115426114d7565b90506000815111611562576040518060200160405280600081525061158d565b8061156c846117c8565b60405160200161157d929190612352565b6040516020818303038152906040525b915050919050565b6115af828260405180602001604052806000815250611975565b5050565b6115bc82610dd6565b6115fb576040517f08c379a00000000000000000000000000000000000000000000000000000000081526004016115f29061255a565b60405180910390fd5b80600660008481526020019081526020016000209080519060200190611622929190611bcd565b505050565b505050565b505050565b60006116528473ffffffffffffffffffffffffffffffffffffffff166119d0565b156117bb578373ffffffffffffffffffffffffffffffffffffffff1663150b7a0261167b610e42565b8786866040518563ffffffff1660e01b815260040161169d9493929190612391565b602060405180830381600087803b1580156116b757600080fd5b505af19250505080156116e857506040513d601f19601f820116820180604052508101906116e59190611f79565b60015b61176b573d8060008114611718576040519150601f19603f3d011682016040523d82523d6000602084013e61171d565b606091505b50600081511415611763576040517f08c379a000000000000000000000000000000000000000000000000000000000815260040161175a9061241a565b60405180910390fd5b805181602001fd5b63150b7a0260e01b7bffffffffffffffffffffffffffffffffffffffffffffffffffffffff1916817bffffffffffffffffffffffffffffffffffffffffffffffffffffffff1916149150506117c0565b600190505b949350505050565b60606000821415611810576040518060400160405280600181526020017f30000000000000000000000000000000000000000000000000000000000000008152509050611970565b600082905060005b6000821461184257808061182b90612913565b915050600a8261183b9190612795565b9150611818565b60008167ffffffffffffffff811115611884577f4e487b7100000000000000000000000000000000000000000000000000000000600052604160045260246000fd5b6040519080825280601f01601f1916602001820160405280156118b65781602001600182028036833780820191505090505b5090505b60008514611969576001826118cf91906127c6565b9150600a856118de919061295c565b60306118ea919061273f565b60f81b818381518110611926577f4e487b7100000000000000000000000000000000000000000000000000000000600052603260045260246000fd5b60200101907effffffffffffffffffffffffffffffffffffffffffffffffffffffffffffff1916908160001a905350600a856119629190612795565b94506118ba565b8093505050505b919050565b61197f83836119f3565b61198c6000848484611631565b6119cb576040517f08c379a00000000000000000000000000000000000000000000000000000000081526004016119c29061241a565b60405180910390fd5b505050565b6000808273ffffffffffffffffffffffffffffffffffffffff163b119050919050565b600073ffffffffffffffffffffffffffffffffffffffff168273ffffffffffffffffffffffffffffffffffffffff161415611a63576040517f08c379a0000000000000000000000000000000000000000000000000000000008152600401611a5a9061257a565b60405180910390fd5b611a6c81610dd6565b15611aac576040517f08c379a0000000000000000000000000000000000000000000000000000000008152600401611aa39061247a565b60405180910390fd5b611ab860008383611627565b6001600360008473ffffffffffffffffffffffffffffffffffffffff1673ffffffffffffffffffffffffffffffffffffffff1681526020019081526020016000206000828254611b08919061273f565b92505081905550816002600083815260200190815260200160002060006101000a81548173ffffffffffffffffffffffffffffffffffffffff021916908373ffffffffffffffffffffffffffffffffffffffff160217905550808273ffffffffffffffffffffffffffffffffffffffff16600073ffffffffffffffffffffffffffffffffffffffff167fddf252ad1be2c89b69c2b068fc378daa952ba7f163c4a11628f55a4df523b3ef60405160405180910390a4611bc96000838361162c565b5050565b828054611bd9906128b0565b90600052602060002090601f016020900481019282611bfb5760008555611c42565b82601f10611c1457805160ff1916838001178555611c42565b82800160010185558215611c42579182015b82811115611c41578251825591602001919060010190611c26565b5b509050611c4f9190611c53565b5090565b5b80821115611c6c576000816000905550600101611c54565b5090565b6000611c83611c7e8461269a565b612675565b905082815260208101848484011115611c9b57600080fd5b611ca684828561286e565b509392505050565b6000611cc1611cbc846126cb565b612675565b905082815260208101848484011115611cd957600080fd5b611ce484828561286e565b509392505050565b600081359050611cfb81612f50565b92915050565b600081359050611d1081612f67565b92915050565b600081359050611d2581612f7e565b92915050565b600081519050611d3a81612f7e565b92915050565b600082601f830112611d5157600080fd5b8135611d61848260208601611c70565b91505092915050565b600082601f830112611d7b57600080fd5b8135611d8b848260208601611cae565b91505092915050565b600081359050611da381612f95565b92915050565b600060208284031215611dbb57600080fd5b6000611dc984828501611cec565b91505092915050565b60008060408385031215611de557600080fd5b6000611df385828601611cec565b9250506020611e0485828601611cec565b9150509250929050565b600080600060608486031215611e2357600080fd5b6000611e3186828701611cec565b9350506020611e4286828701611cec565b9250506040611e5386828701611d94565b9150509250925092565b60008060008060808587031215611e7357600080fd5b6000611e8187828801611cec565b9450506020611e9287828801611cec565b9350506040611ea387828801611d94565b925050606085013567ffffffffffffffff811115611ec057600080fd5b611ecc87828801611d40565b91505092959194509250565b60008060408385031215611eeb57600080fd5b6000611ef985828601611cec565b9250506020611f0a85828601611d01565b9150509250929050565b60008060408385031215611f2757600080fd5b6000611f3585828601611cec565b9250506020611f4685828601611d94565b9150509250929050565b600060208284031215611f6257600080fd5b6000611f7084828501611d16565b91505092915050565b600060208284031215611f8b57600080fd5b6000611f9984828501611d2b565b91505092915050565b600060208284031215611fb457600080fd5b600082013567ffffffffffffffff811115611fce57600080fd5b611fda84828501611d6a565b91505092915050565b600060208284031215611ff557600080fd5b600061200384828501611d94565b91505092915050565b612015816127fa565b82525050565b6120248161280c565b82525050565b6000612035826126fc565b61203f8185612712565b935061204f81856020860161287d565b61205881612a49565b840191505092915050565b600061206e82612707565b6120788185612723565b935061208881856020860161287d565b61209181612a49565b840191505092915050565b60006120a782612707565b6120b18185612734565b93506120c181856020860161287d565b80840191505092915050565b60006120da603283612723565b91506120e582612a5a565b604082019050919050565b60006120fd602683612723565b915061210882612aa9565b604082019050919050565b6000612120602583612723565b915061212b82612af8565b604082019050919050565b6000612143601c83612723565b915061214e82612b47565b602082019050919050565b6000612166602483612723565b915061217182612b70565b604082019050919050565b6000612189601983612723565b915061219482612bbf565b602082019050919050565b60006121ac602c83612723565b91506121b782612be8565b604082019050919050565b60006121cf603883612723565b91506121da82612c37565b604082019050919050565b60006121f2602a83612723565b91506121fd82612c86565b604082019050919050565b6000612215602983612723565b915061222082612cd5565b604082019050919050565b6000612238602e83612723565b915061224382612d24565b604082019050919050565b600061225b602083612723565b915061226682612d73565b602082019050919050565b600061227e603183612723565b915061228982612d9c565b604082019050919050565b60006122a1602c83612723565b91506122ac82612deb565b604082019050919050565b60006122c4602083612723565b91506122cf82612e3a565b602082019050919050565b60006122e7602f83612723565b91506122f282612e63565b604082019050919050565b600061230a602183612723565b915061231582612eb2565b604082019050919050565b600061232d603183612723565b915061233882612f01565b604082019050919050565b61234c81612864565b82525050565b600061235e828561209c565b915061236a828461209c565b91508190509392505050565b600060208201905061238b600083018461200c565b92915050565b60006080820190506123a6600083018761200c565b6123b3602083018661200c565b6123c06040830185612343565b81810360608301526123d2818461202a565b905095945050505050565b60006020820190506123f2600083018461201b565b92915050565b600060208201905081810360008301526124128184612063565b905092915050565b60006020820190508181036000830152612433816120cd565b9050919050565b60006020820190508181036000830152612453816120f0565b9050919050565b6000602082019050818103600083015261247381612113565b9050919050565b6000602082019050818103600083015261249381612136565b9050919050565b600060208201905081810360008301526124b381612159565b9050919050565b600060208201905081810360008301526124d38161217c565b9050919050565b600060208201905081810360008301526124f38161219f565b9050919050565b60006020820190508181036000830152612513816121c2565b9050919050565b60006020820190508181036000830152612533816121e5565b9050919050565b6000602082019050818103600083015261255381612208565b9050919050565b600060208201905081810360008301526125738161222b565b9050919050565b600060208201905081810360008301526125938161224e565b9050919050565b600060208201905081810360008301526125b381612271565b9050919050565b600060208201905081810360008301526125d381612294565b9050919050565b600060208201905081810360008301526125f3816122b7565b9050919050565b60006020820190508181036000830152612613816122da565b9050919050565b60006020820190508181036000830152612633816122fd565b9050919050565b6000602082019050818103600083015261265381612320565b9050919050565b600060208201905061266f6000830184612343565b92915050565b600061267f612690565b905061268b82826128e2565b919050565b6000604051905090565b600067ffffffffffffffff8211156126b5576126b4612a1a565b5b6126be82612a49565b9050602081019050919050565b600067ffffffffffffffff8211156126e6576126e5612a1a565b5b6126ef82612a49565b9050602081019050919050565b600081519050919050565b600081519050919050565b600082825260208201905092915050565b600082825260208201905092915050565b600081905092915050565b600061274a82612864565b915061275583612864565b9250827fffffffffffffffffffffffffffffffffffffffffffffffffffffffffffffffff0382111561278a5761278961298d565b5b828201905092915050565b60006127a082612864565b91506127ab83612864565b9250826127bb576127ba6129bc565b5b828204905092915050565b60006127d182612864565b91506127dc83612864565b9250828210156127ef576127ee61298d565b5b828203905092915050565b600061280582612844565b9050919050565b60008115159050919050565b60007fffffffff0000000000000000000000000000000000000000000000000000000082169050919050565b600073ffffffffffffffffffffffffffffffffffffffff82169050919050565b6000819050919050565b82818337600083830152505050565b60005b8381101561289b578082015181840152602081019050612880565b838111156128aa576000848401525b50505050565b600060028204905060018216806128c857607f821691505b602082108114156128dc576128db6129eb565b5b50919050565b6128eb82612a49565b810181811067ffffffffffffffff8211171561290a57612909612a1a565b5b80604052505050565b600061291e82612864565b91507fffffffffffffffffffffffffffffffffffffffffffffffffffffffffffffffff8214156129515761295061298d565b5b600182019050919050565b600061296782612864565b915061297283612864565b925082612982576129816129bc565b5b828206905092915050565b7f4e487b7100000000000000000000000000000000000000000000000000000000600052601160045260246000fd5b7f4e487b7100000000000000000000000000000000000000000000000000000000600052601260045260246000fd5b7f4e487b7100000000000000000000000000000000000000000000000000000000600052602260045260246000fd5b7f4e487b7100000000000000000000000000000000000000000000000000000000600052604160045260246000fd5b6000601f19601f8301169050919050565b7f4552433732313a207472616e7366657220746f206e6f6e20455243373231526560008201527f63656976657220696d706c656d656e7465720000000000000000000000000000602082015250565b7f4f776e61626c653a206e6577206f776e657220697320746865207a65726f206160008201527f6464726573730000000000000000000000000000000000000000000000000000602082015250565b7f4552433732313a207472616e736665722066726f6d20696e636f72726563742060008201527f6f776e6572000000000000000000000000000000000000000000000000000000602082015250565b7f4552433732313a20746f6b656e20616c7265616479206d696e74656400000000600082015250565b7f4552433732313a207472616e7366657220746f20746865207a65726f2061646460008201527f7265737300000000000000000000000000000000000000000000000000000000602082015250565b7f4552433732313a20617070726f766520746f2063616c6c657200000000000000600082015250565b7f4552433732313a206f70657261746f7220717565727920666f72206e6f6e657860008201527f697374656e7420746f6b656e0000000000000000000000000000000000000000602082015250565b7f4552433732313a20617070726f76652063616c6c6572206973206e6f74206f7760008201527f6e6572206e6f7220617070726f76656420666f7220616c6c0000000000000000602082015250565b7f4552433732313a2062616c616e636520717565727920666f7220746865207a6560008201527f726f206164647265737300000000000000000000000000000000000000000000602082015250565b7f4552433732313a206f776e657220717565727920666f72206e6f6e657869737460008201527f656e7420746f6b656e0000000000000000000000000000000000000000000000602082015250565b7f45524337323155524953746f726167653a2055524920736574206f66206e6f6e60008201527f6578697374656e7420746f6b656e000000000000000000000000000000000000602082015250565b7f4552433732313a206d696e7420746f20746865207a65726f2061646472657373600082015250565b7f45524337323155524953746f726167653a2055524920717565727920666f722060008201527f6e6f6e6578697374656e7420746f6b656e000000000000000000000000000000602082015250565b7f4552433732313a20617070726f76656420717565727920666f72206e6f6e657860008201527f697374656e7420746f6b656e0000000000000000000000000000000000000000602082015250565b7f4f776e61626c653a2063616c6c6572206973206e6f7420746865206f776e6572600082015250565b7f4552433732314d657461646174613a2055524920717565727920666f72206e6f60008201527f6e6578697374656e7420746f6b656e0000000000000000000000000000000000602082015250565b7f4552433732313a20617070726f76616c20746f2063757272656e74206f776e6560008201527f7200000000000000000000000000000000000000000000000000000000000000602082015250565b7f4552433732313a207472616e736665722063616c6c6572206973206e6f74206f60008201527f776e6572206e6f7220617070726f766564000000000000000000000000000000602082015250565b612f59816127fa565b8114612f6457600080fd5b50565b612f708161280c565b8114612f7b57600080fd5b50565b612f8781612818565b8114612f9257600080fd5b50565b612f9e81612864565b8114612fa957600080fd5b5056fea26469706673582212206557610702000ff994e4f281bbe193bcab1913bc0af5dc58fd7f8ce6d01366a264736f6c63430008040033",
  "linkReferences": {},
  "deployedLinkReferences": {}
}